:020000040800F2
:100000001807002029020008591D0008D91B000804
:10001000551D000821040008992200080000000076
:10002000000000000000000000000000CD1F0008DC
:100030002504000800000000C91D00082520000854
:10004000430200084302000843020008430200087C
:10005000430200084302000843020008430200086C
:10006000430200084302000843020008430200085C
:10007000430200084302000843020008430200084C
:10008000430200084302000843020008430200083C
:10009000430200084302000843020008430200082C
:1000A000430200084302000843020008430200081C
:1000B000430200084302000843020008430200080C
:1000C000430200084302000843020008CD1D000857
:1000D00043020008430200084302000843020008EC
:1000E00043020008430200084302000843020008DC
:1000F00043020008430200084302000843020008CC
:1001000043020008430200084302000843020008BB
:1001100043020008430200084302000843020008AB
:10012000430200084302000843020008430200089B
:10013000430200084302000843020008430200088B
:10014000430200084302000843020008430200087B
:10015000430200084302000843020008430200086B
:10016000430200084302000843020008430200085B
:100170004302000843020008430200080000000098
:10018000430200084302000800F002F800F03CF8C7
:100190000AA090E8000C82448344AAF10107DA45E2
:1001A00001D100F031F8AFF2090EBAE80F0013F0F8
:1001B000010F18BFFB1A43F001031847702200001B
:1001C00090220000103A24BF78C878C1FAD85207AC
:1001D00024BF30C830C144BF04680C6070470000C1
:1001E0000023002400250026103A28BF78C1FBD840
:1001F000520728BF30C148BF0B6070471FB502F0DF
:1002000000F91FBD10B510BD00F0D0F81146FFF782
:10021000F5FF02F0DFF800F0EEF803B4FFF7F2FFAD
:1002200003BC00F0F5F80000094880470948004782
:10023000FEE7FEE7FEE7FEE7FEE7FEE7FEE7FEE796
:10024000FEE7FEE704480549054A064B70470000F3
:10025000E920000889010008180100201807002083
:10026000180300201803002053EA020C00F06980F4
:100270002DE9F04B4FF00006002B1FBFB3FA83F5BA
:1002800003FA05F424FA05F65E4012BF1643B2FAEB
:1002900082F502FA05F4C5F120051EBF22FA05FC1D
:1002A00044EA0C04203556EA044C4FEA144418BFC3
:1002B000641C4FF000084FF00009904271EB030CF2
:1002C00039D3002919BFB1FA81F701FA07F6B0FA5C
:1002D00080F700FA07F6C7F120071EBF20FA07FCD7
:1002E00046EA0C062037B6FBF4FCA7EB0507103FE7
:1002F00007F01F0BCBF120062CFA06F60CFA0BFBCD
:1003000044BFB3460026202FA4BF5E464FF0000B2B
:100310005BEA060C08BF4FF0010B19EB0B0948EB29
:100320000608ABFB027C06FB02CC0BFB03CCC01B1C
:1003300071EB0C01C1E70B46024641464846BDE859
:10034000F08B13B5084318BF4FF0FF300146AFF3F1
:100350000080BDE81C4070474FF0000200B5134616
:1003600094469646203922BFA0E80C50A0E80C50D5
:10037000B1F12001BFF4F7AF090728BFA0E80C5086
:1003800048BF0CC05DF804EB890028BF40F8042B7F
:1003900008BF704748BF20F8022B11F0804F18BFEC
:1003A00000F8012B7047704770477047754600F0A2
:1003B0002BF8AE4605006946534620F007008546F7
:1003C00018B020B5FFF73EFFBDE820404FF0000613
:1003D0004FF000074FF000084FF0000BAC46ACE8C0
:1003E000C009ACE8C009ACE8C009ACE8C00921F01C
:1003F00007018D46704710B50446AFF300802046D4
:10040000BDE81040FFF709BF00487047100000200A
:1004100001491820ABBEFEE726000200704700002D
:10042000FFE7FEE77047000081B0EFF3108072B67F
:100430000090FFE7FEE7000082B00090009890F87F
:100440003500022807D0FFE7009980204865012089
:100450008DF807000EE00099052081F8350000981E
:100460000168086820F001000860FFE700208DF8AF
:100470000700FFE79DF8070002B070478EB00D90AF
:100480000C9100200A90099008900B90FFE70B98C0
:100490000F2800F2CC81FFE70B99012088400A90D9
:1004A0000C9800680A990840099009980A998842AE
:1004B00040F0B881FFE70C98406800F00300012885
:1004C00007D0FFE70C98406800F0030002282FD106
:1004D000FFE70D98806808900B984100032000FA10
:1004E00001F10898884308900C98C0680B9949005E
:1004F00000FA01F108980843089008980D9988605F
:100500000D98406808900B99012000FA01F10898B5
:10051000884308900C984068C0F300100B9900FACB
:1005200001F108980843089008980D994860FFE782
:100530000C98406800F00300032818D0FFE70D98DE
:10054000C06808900B984100032000FA01F1089858
:10055000884308900C9880680B99490000FA01F1D3
:1005600008980843089008980D99C860FFE70C9810
:10057000406800F00300022826D1FFE70D980B9990
:100580006FF0030202EA51010844006A08900B98D8
:1005900000F0070081000F2000FA01F1089888435D
:1005A00008900C9800690B9901F00701890000FA86
:1005B00001F108980843089008980D990B9B02EAEE
:1005C000530211440862FFE70D98006808900B98E9
:1005D0004100032000FA01F10898884308900C9824
:1005E000406800F003000B99490000FA01F10898F7
:1005F0000843089008980D9908600C988079800746
:10060000002800F00E81FFE7FFE70020079043F687
:100610004400C4F20200016841F4804101600068B6
:1006200000F4804007900798FFE70B9820F0030044
:1006300043F60801C4F20101405808900B9800F0FD
:10064000030081000F2000FA01F108988843089008
:100650000D980021C4F20201884203D1FFE7002077
:1006600006905EE00D9840F20041C4F2020188421B
:1006700003D1FFE70120059050E00D9840F60001FE
:10068000C4F20201884203D1FFE70220049042E055
:100690000D9840F60041C4F20201884203D1FFE701
:1006A0000320039034E00D9841F20001C4F20201EE
:1006B000884203D1FFE70420029026E00D9841F222
:1006C0000041C4F20201884203D1FFE705200190F6
:1006D00018E00D9841F60001C4F20201884203D1EE
:1006E000FFE7062000900AE00D9941F60042C4F2AF
:1006F00002020820914208BF07200090FFE70098FF
:100700000190FFE701980290FFE702980390FFE74E
:1007100003980490FFE704980590FFE7059806907A
:10072000FFE70698C0B20B9901F00301890000FAB7
:1007300001F108980843089008980B9921F00301EB
:1007400043F60802C4F20102885043F60840C4F29E
:1007500001000068089009990898884308900C984F
:100760008079C006002805D5FFE709990898084355
:100770000890FFE7089843F60841C4F201010860B9
:1007800043F60C40C4F201000068089009990898EB
:10079000884308900C9880798006002805D5FFE7EB
:1007A0000999089808430890FFE7089843F60C4118
:1007B000C4F20101086043F60440C4F2010000687D
:1007C000089009990898884308900C9880798007C8
:1007D000002805D5FFE70999089808430890FFE726
:1007E000089843F60441C4F20101086043F6004052
:1007F000C4F201000068089009990898884308909D
:100800000C988079C00728B1FFE709990898084338
:100810000890FFE7089843F60041C4F20101086020
:10082000FFE7FFE7FFE70B9801300B902FE60EB0D4
:100830007047000082B00190ADF802108DF80120E1
:100840009DF8010028B1FFE7BDF802000199886119
:1008500005E0BDF80200000401998861FFE702B0DD
:100860007047000040F21010C2F2000000687047AC
:1008700040F20400C2F20000027840F21011C2F20D
:1008800000010868104408607047000080B582B01D
:1008900043F60041C4F20201086840F400700860A9
:1008A000086840F480600860086840F48070086060
:1008B000032000F08BF80020019000F005F800F014
:1008C0003BF8019802B080BD80B582B0009040F244
:1008D0000000C2F20000006840F20401C2F2000110
:1008E0000A784FF47A71B1FBF2F1B0FBF1F001F04C
:1008F000D5F820B1FFE701208DF8070018E0009837
:100900000F280DD8FFE700994FF0FF30002200F0CC
:1009100043F8009840F20801C2F20001086003E0C9
:1009200001208DF8070003E000208DF80700FFE7A5
:100930009DF8070002B080BD82B0FFE70020019063
:1009400043F64400C4F20200016841F480410160B2
:10095000006800F4804001900198FFE7FFE7002065
:10096000009043F64000C4F20200016841F080515B
:100970000160006800F0805000900098FFE702B02E
:100980007047000080B582B08DF807009DF9070020
:1009900001F0C0FC02B080BD80B586B08DF81700B4
:1009A000049103920020029001F0CCFC02909DF98A
:1009B0001700019002980499039A01F0CFF90146BB
:1009C000019801F0C7FC06B080BD000080B582B080
:1009D0000190019801F0E0FC02B080BD80B584B0C8
:1009E00002900191029820B9FFE701208DF80F00D5
:1009F00021E1019843F60041C4F20201096801F0C7
:100A00000701884212D9FFE7019943F60040C4F27A
:100A100002000170006800F007000199884204D0CC
:100A2000FFE701208DF80F0005E1FFE7029800784D
:100A3000800700282AD5FFE70298007840070028A1
:100A400009D5FFE743F60801C4F20201086840F443
:100A5000E0500860FFE7029800780007002809D5F9
:100A6000FFE743F60801C4F20201086840F4604061
:100A70000860FFE743F60801C4F20201086820F0AD
:100A8000F000029A926810430860FFE7029800782D
:100A9000C00700286ED0FFE702984068012811D1F6
:100AA000FFE743F60000C4F20200006800F40031E2
:100AB0000020B0EB514F04D1FFE701208DF80F006B
:100AC000B9E02CE002984068022805D0FFE70298C0
:100AD0004068032811D1FFE743F60000C4F202008A
:100AE000006800F000710020B0EB516F04D1FFE707
:100AF00001208DF80F009EE010E043F60000C4F2E4
:100B00000200006800F002010020B0EB510F04D198
:100B1000FFE701208DF80F008DE0FFE7FFE743F6C8
:100B20000801C4F20201086820F00300029A52682A
:100B300010430860FFF796FE0090FFE743F60800B9
:100B4000C4F20200006800F00C0002994968B0EBA2
:100B5000810F0ED0FFE7FFF785FE0099401A41F2A2
:100B60008931884204D3FFE703208DF80F0062E04B
:100B7000E4E7FFE7019843F60041C4F20201096887
:100B800001F00701884212D2FFE7019943F60040C5
:100B9000C4F202000170006800F007000199884269
:100BA00004D0FFE701208DF80F0044E0FFE7029832
:100BB0000078400700280CD5FFE743F60801C4F28F
:100BC0000201086820F4E050029AD26810430860DD
:100BD000FFE702980078000700280DD5FFE743F6ED
:100BE0000801C4F20201086820F46040029A126908
:100BF00040EAC2000860FFE700F022F843F608016F
:100C0000C4F202010968C9B20A0942F21C41C0F6E5
:100C10000001895CC84040F20001C2F20001086096
:100C200040F20800C2F200000068FFF74DFE00200D
:100C30008DF80F00FFE79DF80F0004B080BD0000A5
:100C400080B586B00020059004900390029043F692
:100C50000800C4F20200006800F00C000146019197
:100C600040B1FFE7019804280AD0FFE7019808285F
:100C70000CD04FE042F20040C0F2F40002904FE08E
:100C800041F60030C0F2B700029049E043F604009C
:100C9000C4F20200016801F03F01059100684002C2
:100CA000002813D5FFE743F60400C4F202000068F1
:100CB000C0F3881041F60031C0F2B701A0FB01017A
:100CC000059A0023FFF7D0FA049012E043F60400DF
:100CD000C4F202000068C0F3881042F20041C0F282
:100CE000F401A0FB0101059A0023FFF7BDFA04906F
:100CF000FFE743F60400C4F20200006800F440314C
:100D0000022000EBD130039004980399B0FBF1F07E
:100D1000029005E042F20040C0F2F4000290FFE7CA
:100D2000029806B080BD000080B586B0049004989B
:100D300020B9FFE701208DF8170050E304980078F0
:100D4000C007002800F0A580FFE743F60800C4F2C2
:100D50000200006800F00C00042813D0FFE743F6FF
:100D60000800C4F20200006800F00C0008281ED140
:100D7000FFE743F60400C4F20200006840020028C6
:100D800015D5FFE743F60000C4F20200006800F446
:100D900000310020B0EB514F08D0FFE704984068C5
:100DA00020B9FFE701208DF8170018E370E0FFE796
:100DB00004984068B0F5803F09D1FFE743F6000191
:100DC000C4F20201086840F48030086020E0049812
:100DD0004068B0F5A02F0DD1FFE743F60001C4F243
:100DE0000201086840F480200860086840F4803000
:100DF00008600CE043F60001C4F20201086820F428
:100E000080300860086820F480200860FFE7FFE772
:100E1000FFE704984068E8B1FFE7FFF723FD039080
:100E2000FFE743F60000C4F20200006800F400315E
:100E30000020B0EB514F0CD1FFE7FFF713FD0399F2
:100E4000401A652804D3FFE703208DF81700C6E297
:100E5000E7E71CE0FFF706FD0390FFE743F600001D
:100E6000C4F20200006800F400310020B0EB514FE2
:100E70000CD0FFE7FFF7F6FC0399401A652804D36E
:100E8000FFE703208DF81700A9E2E7E7FFE7FFE798
:100E9000FFE7049800788007002840F19680FFE77C
:100EA00043F60800C4F20200006810F00C0F13D0E3
:100EB000FFE743F60800C4F20200006800F00C00EF
:100EC00008282CD1FFE743F60400C4F202000068B2
:100ED0004002002823D4FFE743F60000C4F20200DA
:100EE000006800F002010020B0EB510F09D0FFE7CD
:100EF0000498C068012804D0FFE701208DF817008E
:100F00006DE243F60001C4F20201086820F0F80027
:100F1000049A126940EAC2000860FFE754E00498AE
:100F2000C06870B3FFE70021C4F2472101200860C8
:100F3000FFF798FC0390FFE743F60000C4F20200BD
:100F4000006800F002010020B0EB510F0CD1FFE768
:100F5000FFF788FC0399401A032804D3FFE7032016
:100F60008DF817003BE2E7E743F60001C4F2020107
:100F7000086820F0F800049A126940EAC20008608C
:100F800021E00021C4F2472100200860FFF76AFC3D
:100F90000390FFE743F60000C4F20200006800F08F
:100FA00002010020B0EB510F0CD0FFE7FFF75AFC15
:100FB0000399401A032804D3FFE703208DF8170094
:100FC0000DE2E7E7FFE7FFE7FFE704980078000797
:100FD00000284BD5FFE70498406918B3FFE740F6B7
:100FE0008061C4F2472101200860FFF73BFC0390B9
:100FF000FFE743F67400C4F20200006800F002014B
:101000000020B0EB510F0CD1FFE7FFF72BFC039949
:10101000401A032804D3FFE703208DF81700DEE110
:10102000E7E722E040F68061C4F247210020086033
:10103000FFF718FC0390FFE743F67400C4F20200C8
:10104000006800F002010020B0EB510F0CD0FFE768
:10105000FFF708FC0399401A032804D3FFE7032095
:101060008DF81700BBE1E7E7FFE7FFE7049800789A
:101070004007002840F1CE80FFE700208DF80700F0
:1010800043F64000C4F202000068C000002815D4F6
:10109000FFE7FFE70020009043F64000C4F20200A3
:1010A000016841F080510160006800F080500090BC
:1010B0000098FFE701208DF80700FFE747F20000E6
:1010C000C4F200000068C005002822D4FFE747F200
:1010D0000001C4F20001086840F480700860FFF766
:1010E000C1FB0390FFE747F20000C4F20000006874
:1010F000C00500280CD4FFE7FFF7B4FB0399401AA2
:10110000032804D3FFE703208DF8170067E1EAE71F
:10111000FFE7FFE704988068012809D1FFE743F65D
:101120007001C4F20201086840F0010008601FE08D
:101130000498806805280DD1FFE743F67001C4F2DA
:101140000201086840F004000860086840F00100EF
:1011500008600CE043F67001C4F20201086820F058
:1011600001000860086820F004000860FFE7FFE75E
:10117000FFE704988068F8B1FFE7FFF773FB03907F
:10118000FFE743F67000C4F20200006800F00201BD
:101190000020B0EB510F0ED1FFE7FFF763FB03997F
:1011A000401A41F28931884204D3FFE703208DF8C9
:1011B000170014E1E5E71EE0FFF754FB0390FFE79B
:1011C00043F67000C4F20200006800F00201002043
:1011D000B0EB510F0ED0FFE7FFF744FB0399401A25
:1011E00041F28931884204D3FFE703208DF81700CC
:1011F000F5E0E5E7FFE79DF80700012809D1FFE7E3
:1012000043F64001C4F20201086820F080500860F3
:10121000FFE7FFE704988069002800F0DC80FFE723
:1012200043F60800C4F20200006800F00C00082831
:1012300000F08580FFE70498806902285CD1FFE711
:101240006021C4F2472100200860FFF70BFB0390E8
:10125000FFE743F60000C4F20200006800F00071EE
:101260000020B0EB516F0CD0FFE7FFF7FBFA0399BA
:10127000401A032804D3FFE703208DF81700AEE0DF
:10128000E7E70499C869D1F820C04B6A8A6A40EA46
:101290000C0040EA8310D2034FF6FF739A43A2F585
:1012A00080321043C96A40EA016043F60401C4F287
:1012B000020108606021C4F2472101200860FFF7A5
:1012C000D1FA0390FFE743F60000C4F20200006881
:1012D00000F000710020B0EB516F0CD1FFE7FFF779
:1012E000C1FA0399401A032804D3FFE703208DF8BD
:1012F000170074E0E7E721E06021C4F247210020F5
:101300000860FFF7AFFA0390FFE743F60000C4F26E
:101310000200006800F000710020B0EB516F0CD0AB
:10132000FFE7FFF79FFA0399401A032804D3FFE76A
:1013300003208DF8170052E0E7E7FFE74AE0049842
:101340008069012804D1FFE701208DF8170046E0ED
:1013500043F60400C4F20200006802900498806919
:10136000012831D0FFE7029800F480000499C96990
:10137000884229D1FFE7029800F03F000499096AEA
:10138000884221D1FFE7029847F6C07108400499CE
:10139000496AB0EB811F17D1FFE7029800F4403093
:1013A0000499896AC9034FF6FF729143A1F5803110
:1013B000884209D1FFE7029800F070600499C96A79
:1013C000B0EB016F04D0FFE701208DF8170006E0B5
:1013D000FFE7FFE7FFE700208DF81700FFE79DF824
:1013E000170006B080BD000081B0009001B07047CA
:1013F00080B588B007900798006840680690079805
:101400000068806805909DF8140000F040010020FD
:10141000B0EB911F11D1FFE70598C00768B1FFE756
:101420009DF8180000F040010020B0EB911F04D09F
:10143000FFE70798016C8847F0E09DF8140000F082
:1014400002010020B0EB510F0BD0FFE79DF8181000
:101450000020B0EBD11F04D0FFE70798416C88470C
:10146000DCE09DF8140000F020010020B0EB511FDB
:1014700010D1FFE79DF8140000F040010020B0EB10
:10148000911F07D1FFE79DF81500C007002800F065
:10149000C580FFE79DF8180000F020010020B0EBA8
:1014A000511F00F0BB80FFE79DF8140000F04001E1
:1014B0000020B0EB911F28D0FFE7079890F851006B
:1014C000032813D0FFE70799486D40F004004865F2
:1014D000FFE70020049007980068C0680490079810
:1014E0000068806804900498FFE70DE0FFE70020A3
:1014F000039007980068C0680390079800688068A8
:1015000003900398FFE789E0FFE79DF8140000F0DF
:1015100020010020B0EB511F15D0FFE70799486D5F
:1015200040F001004865FFE700200290079800683E
:101530008068029007980168086820F04000086001
:101540000298FFE7FFE79DF81500C00778B1FFE7B5
:101550000799486D40F008004865FFE700200190BA
:1015600007980068806801900198FFE7FFE70798F7
:10157000406D002851D0FFE707980168486820F0C7
:10158000E00048600799012081F85100069800F0BA
:101590000200022805D0FFE79DF81800C007B8B385
:1015A000FFE707980168486820F003004860079843
:1015B000C06CA0B1FFE70798C16C41F6DD50C0F6E2
:1015C000000008650798C06CFEF736FF30B1FFE7F2
:1015D0000799486D40F040004865FFE7FFE707982E
:1015E000806CA0B1FFE70798816C41F6DD50C0F632
:1015F000000008650798806CFEF71EFF30B1FFE71A
:101600000799486D40F040004865FFE7FFE703E0B9
:101610000798FFF7E9FEFFE7FFE7FFE708B080BDA7
:1016200080B584B00290029820B9FFE701208DF8C0
:101630000F0071E00298406A60B9FFE702984068C5
:10164000B0F5827F01D1FFE703E002990020C86175
:10165000FFE705E002990020086102994861FFE771
:10166000029900208862029890F8510040B9FFE783
:101670000299002081F85000029800F051F8FFE72D
:101680000299022081F8510002980168086820F050
:1016900040000860029A019211685068D2F808C0B0
:1016A000D36800F482700CF4044C604403F40063CB
:1016B0001844136903F002031844536903F001034B
:1016C0001844936903F400731844D36903F0380392
:1016D0001844136A03F080031843926A02F400521C
:1016E00010430860029A508B00F004001168526A9F
:1016F00002F010021044486002980168C86920F4A2
:101700000060C861029900204865029A012182F8B0
:1017100051108DF80F00FFE79DF80F0004B080BD59
:1017200080B590B00F9000200E900D900C900B9013
:101730000A900F98006843F20001C4F20101884248
:1017400067D1FFE7FFE70020099043F64400C4F2A9
:101750000200016841F480510160006800F480508B
:1017600009900998FFE7FFE70020089043F6300052
:10177000C4F20200016841F002010160006800F05B
:10178000020008900898FFE7FFE70020079043F663
:101790003000C4F20200016841F0010101600068FC
:1017A00000F0010007900798FFE718200A90022038
:1017B00001900B90002005900C90032002900D905A
:1017C000052003900E9040F20040C4F202000AA9E6
:1017D0000491FEF753FEDDF804C0029A03980499C1
:1017E000059B4FF0800ECDF828E0CDF82CC00C936F
:1017F0000D920E900020C4F20200FEF73FFE059A03
:10180000232006901146FFF7C7F80698FFF7BAF8AD
:10181000FFE710B080BD000080B588B0069005914C
:10182000ADF81220039300208DF80700FFE706981B
:1018300090F85000012804D1FFE702208DF81F0026
:1018400028E10699012081F85000FFE7FFE7FFF744
:1018500009F80290BDF81200ADF80400069890F85F
:101860005100012804D0FFE702208DF8070002E1B3
:10187000059820B1FFE7BDF8120020B9FFE701206D
:101880008DF80700F7E00699032081F851000699CA
:10189000002048650599069A1163BDF81210069A52
:1018A0009186BDF81210069AD1860699886306992A
:1018B00088870699C8870699486406990864069837
:1018C0008068B0F5004F0DD1FFE706980168086801
:1018D00020F04000086006980168086840F48040E5
:1018E0000860FFE706980068006800F040004028A4
:1018F00007D0FFE706980168086840F040000860DC
:10190000FFE70698C068B0F5006F47D1FFE706987B
:10191000406828B1FFE7BDF8040001280ED1FFE7B9
:1019200006980168006B0088C8600699086B023051
:1019300008630699C88E0138C886FFE7FFE7069856
:10194000C08E50B3FFE706980068806880070028C3
:101950000ED5FFE706980168006B0088C8600699FD
:10196000086B023008630699C88E0138C88613E0F8
:10197000FEF778FF0299401A0399884204D3FFE7E3
:101980000398013018B9FFE7039820B9FFE7032057
:101990008DF807006FE0FFE7D1E746E00698406862
:1019A00028B1FFE7BDF8040001280ED1FFE7069833
:1019B0000168006B007808730699086B01300863B2
:1019C0000699C88E0138C886FFE7FFE70698C08EE3
:1019D00050B3FFE7069800688068800700280ED59E
:1019E000FFE706980168006B007808730699086B9A
:1019F000013008630699C88E0138C88613E0FEF7E7
:101A000031FF0299401A0399884204D3FFE70398F3
:101A1000013018B9FFE7039820B9FFE703208DF8DC
:101A2000070028E0FFE7D1E7FFE706980399029A4D
:101A300000F0E4F920B1FFE7069920204865FFE7B0
:101A40000698806870B9FFE7FFE7002000900698CD
:101A50000068C06800900698006880680090009850
:101A6000FFE7FFE70698406D20B1FFE701208DF802
:101A70000700FFE7FFE70699012081F85100FFE723
:101A80000699002081F85000FFE79DF807008DF8C7
:101A90001F00FFE79DF81F0008B080BD80B582B031
:101AA0000190019800F094FA02B080BD80B582B038
:101AB0000090009820B9FFE701208DF807003FE073
:101AC000009890F83D0040B9FFE70099002081F8A8
:101AD0003C00009800F038F8FFE70099022081F8F8
:101AE0003D00009951F8040B00F008FB009901201B
:101AF00081F84600FFE70099012081F83E00009937
:101B000081F83F00009981F84000009981F8410078
:101B1000FFE7FFE70099012081F84200009981F872
:101B20004300009981F84400009981F84500FFE7DF
:101B30000099012081F83D0000208DF80700FFE7A3
:101B40009DF8070002B080BD80B588B007900020E6
:101B5000069005900490039002900798006844F264
:101B60000041C4F20101884233D1FFE7FFE70020C2
:101B7000019043F64400C4F20200016841F40031D0
:101B80000160006800F4003001900198FFE7FFE772
:101B90000020009043F63000C4F20200016841F0DA
:101BA00020010160006800F0200000900098FFE72D
:101BB0004020029002200390002004900590032012
:101BC000069041F20040C4F2020002A9FEF756FC62
:101BD000FFE708B080BD0000FFE7FEE780B590B0EA
:101BE00000200F900E900D900C900B90FFE70020BE
:101BF0000A9043F63000C4F20200016841F002018D
:101C00000160006800F002000A900A98FFE7FFE711
:101C10000020099043F63000C4F20200016841F050
:101C200001010160006800F0010009900998FFE7D8
:101C3000FFE70020089043F63000C4F2020001687C
:101C400041F080010160006800F080000890089871
:101C5000FFE7FFE70020079043F63000C4F20200E0
:101C6000016841F020010160006800F02000079049
:101C70000798FFE70020C4F20200029010210191B2
:101C800000220492FEF7D6FD049A40F20040C4F20E
:101C90000200059001210391FEF7CCFD019B029803
:101CA000039A04990B930C920D910E910BA9069136
:101CB000FEF7E4FB039B049A059806990B930C939B
:101CC0000D920E92FEF7DAFB10B080BD80B582B0A7
:101CD00040F27000C2F20000019043F20001C4F231
:101CE000010101604FF48271416000218160C16097
:101CF00002220261012242614FF4007282613822A5
:101D0000C2610162416281620A21C162FFF788FCFF
:101D100018B1FFE7FEF788FBFFE702B080BD0000C7
:101D200080B540F2C800C2F2000044F20041C4F2A3
:101D3000010101600021416081604FF6FF72C260C5
:101D400001618161FFF7B2FE18B1FFE7FEF76CFB9E
:101D5000FFE780BDFFE7FEE7FFE7FEE788B00790FB
:101D600006910592079800F0070004900498C0F1CE
:101D70000700052803D3FFE70420019004E004983E
:101D8000C0F107000190FFE7019803900498043028
:101D9000062803D8FFE70020009003E004980338EA
:101DA0000090FFE70098029006980399012202FA3A
:101DB00001F101390840029B984005999A40013A87
:101DC0001140084308B070477047000080B540F2EA
:101DD0007000C2F20000FFF70BFB80BD80B582B03F
:101DE00001900198806B009000990020C8870099AD
:101DF000C8860098FFF7F8FA02B080BD80B586B0BB
:101E000004900391029240F20000C2F200000068C8
:101E10004AF6AB21CAF6AA21A0FB011000094DF633
:101E20008361C4F21B31A0FB0110800C4FF47A7166
:101E30004843019004984068B0F5827F15D1FFE7D0
:101E40000498039B02996A4611608021002200F0E9
:101E500027F848B1FFE70499486D40F02000486535
:101E600003208DF8170017E012E0FFE7019808B98A
:101E7000FFE70CE0019801380190FFE70498006843
:101E80008068C1B20020B0EBD11FEFD1FFE7FFE7C0
:101E900000208DF81700FFE79DF8170006B080BD01
:101EA00080B58AB0DDF830C0089007918DF81B200E
:101EB000059305980190FEF7D5FC024601980C9910
:101EC000891A08440390FEF7CDFC0290039840F273
:101ED0000001C2F200010968C1F3CB31484304900C
:101EE000FFE708980068806807990840401AB0FA30
:101EF00080F040099DF81B1088425ED0FFE70598EE
:101F00000130002858D0FFE7FEF7ACFC0299401AD8
:101F10000399884204D2FFE70398002842D1FFE7E3
:101F200008980168486820F0E00048600898406818
:101F3000B0F5827F13D1FFE708988068B0F5004FB5
:101F400006D0FFE708988068B0F5806F07D1FFE7FB
:101F500008980168086820F040000860FFE70898CA
:101F6000806AB0F5005F0FD1FFE7FFE708980168CE
:101F7000086820F40050086008980168086840F478
:101F800000500860FFE7FFE70899012081F8510041
:101F9000FFE70899002081F85000FFE703208DF843
:101FA00027000EE0049818B9FFE700200390FFE730
:101FB000049801380490FFE793E700208DF827008C
:101FC000FFE79DF827000AB080BD000070470000C1
:101FD00080B582B0009000980138B0F1807F03D3C3
:101FE000FFE70120019019E0009801384EF214013A
:101FF000CEF2000108604FF0FF300F2100F0AAF987
:102000004EF21801CEF20001002008604EF21002DC
:10201000CEF20002072111600190FFE7019802B0A3
:1020200080BD000080B5FEF723FC80BD80B594B074
:1020300008A83021FEF790F900200790069005903F
:1020400004900390FFE70020029043F64000C4F2A2
:102050000200016841F080510160006800F080508A
:1020600002900298FFE7FFE70020019047F200008E
:10207000C4F20000016841F480410160006800F48E
:10208000804001900198FFE7012008904FF48030D4
:10209000099002200E904FF480010F9106211091BB
:1020A000A821119112900420139008A8FEF73CFE7D
:1020B00018B1FFE7FEF7B8F9FFE70F200390022001
:1020C0000490002005904FF4A05006904FF48050EB
:1020D000079003A80521FEF781FC18B1FFE7FEF782
:1020E000A3F9FFE714B080BD4EF68851CEF200018F
:1020F000086840F4700008607047000083B00290E8
:10210000019102980068009002980021C4F2010138
:10211000884225D0FFE70298B0F1804F20D0FFE73A
:10212000029840F20041C4F20001884218D0FFE753
:10213000029840F60001C4F20001884210D0FFE787
:10214000029840F60041C4F20001884208D0FFE73F
:10215000029840F20041C4F2010188420AD1FFE72F
:10216000009820F0700000900198416800980843A2
:102170000090FFE702980021C4F20101884255D087
:10218000FFE70298B0F1804F50D0FFE7029840F28D
:102190000041C4F20001884248D0FFE7029840F6AF
:1021A0000001C4F20001884240D0FFE7029840F6E7
:1021B0000041C4F20001884238D0FFE7029840F2A3
:1021C0000041C4F20101884230D0FFE7029844F296
:1021D0000001C4F20101884228D0FFE7029844F2CE
:1021E0000041C4F20101884220D0FFE7029844F682
:1021F0000001C4F20101884218D0FFE7029841F6BD
:102200000001C4F20001884210D0FFE7029841F6B5
:102210000041C4F20001884208D0FFE7029842F270
:102220000001C4F2000188420AD1FFE7009820F4BF
:10223000407000900198C168009808430090FFE743
:10224000009820F0800001994969084300900098A7
:1022500002990860019880680299C8620198006834
:102260000299886202980021C4F20101884208D0D4
:10227000FFE7029840F20041C4F20101884205D113
:10228000FFE70198006902990863FFE702990120BE
:10229000486103B070470000FFE7FEE780B500200B
:1022A000C4F2020010214122012300F013F880BD86
:1022B00080B582B08DF8070040F27000C2F20000D5
:1022C0000DF1070101224FF0FF33FFF7A5FA02B02D
:1022D00080BD000080B582B001908DF803108DF8AC
:1022E00002208DF8013001989DF803100022FEF7BE
:1022F000A1FA9DF80200FFF7DBFF9DF80100FFF750
:10230000D7FF01989DF803100122FEF793FA02B05F
:1023100080BD000081B08DF803009DF90300002806
:102320000ED4FFE79DF9031001F01F020120904039
:102330004A094EF20011CEF2000141F82200FFE7F7
:1023400001B070474EF60C50CEF200000068C0F3AA
:102350000220704782B08DF8070000919DF90700B8
:1023600000280AD4FFE7009800019DF907104EF2FB
:102370000042CEF2000288540BE0009800019DF864
:10238000071001F00F014EF61452CEF200028854ED
:10239000FFE702B07047000083B00290029800F09F
:1023A000070000904EF60C51CEF200010868019033
:1023B00001984FF6FF02104001900198009A40EA00
:1023C00002200022C0F2FA521043019001980860E6
:1023D00003B0704780B582B000200190FEF756FA36
:1023E000FFF724FEFFF7FAFBFFF770FCFFF798FCFE
:1023F00000F002F8FFE7FEE780B5FFF74FFFFFE7C9
:10240000FEE7F1EE100A4FF6FF71C0F2C03120EA8C
:10241000010040F04070E1EE100A7047000000003B
:102420000000000001020304060708095024000808
:102430000000002010000000C40100086024000813
:102440001000002008070000E00100080000000064
:102450000024F40001000000100000000000000053
:040000050800018965
:00000001FF
